{
  "_format": "hh-sol-artifact-1",
  "contractName": "FlashLoanArbitrage",
  "sourceName": "contracts/FlashLoanArbitrage.sol",
  "abi": [
    {
      "inputs": [
        {
          "internalType": "contract IVault",
          "name": "_vault",
          "type": "address"
        },
        {
          "internalType": "contract ISwapRouter",
          "name": "_uniswapRouter",
          "type": "address"
        },
        {
          "internalType": "contract IUniswapV2Router02",
          "name": "_sushiswapRouter",
          "type": "address"
        }
      ],
      "stateMutability": "nonpayable",
      "type": "constructor"
    },
    {
      "anonymous": false,
      "inputs": [
        {
          "indexed": false,
          "internalType": "address[]",
          "name": "tokens",
          "type": "address[]"
        },
        {
          "indexed": false,
          "internalType": "uint256[]",
          "name": "amounts",
          "type": "uint256[]"
        },
        {
          "indexed": false,
          "internalType": "uint256",
          "name": "profit",
          "type": "uint256"
        }
      ],
      "name": "ArbitrageExecuted",
      "type": "event"
    },
    {
      "anonymous": false,
      "inputs": [
        {
          "indexed": false,
          "internalType": "address",
          "name": "token0",
          "type": "address"
        },
        {
          "indexed": false,
          "internalType": "address",
          "name": "token1",
          "type": "address"
        },
        {
          "indexed": false,
          "internalType": "uint256",
          "name": "uniswapPrice",
          "type": "uint256"
        },
        {
          "indexed": false,
          "internalType": "uint256",
          "name": "sushiswapPrice",
          "type": "uint256"
        }
      ],
      "name": "PriceChecked",
      "type": "event"
    },
    {
      "inputs": [],
      "name": "BPS_DENOMINATOR",
      "outputs": [
        {
          "internalType": "uint256",
          "name": "",
          "type": "uint256"
        }
      ],
      "stateMutability": "view",
      "type": "function"
    },
    {
      "inputs": [],
      "name": "MIN_PROFIT_BPS",
      "outputs": [
        {
          "internalType": "uint256",
          "name": "",
          "type": "uint256"
        }
      ],
      "stateMutability": "view",
      "type": "function"
    },
    {
      "inputs": [
        {
          "internalType": "address",
          "name": "tokenIn",
          "type": "address"
        },
        {
          "internalType": "address",
          "name": "tokenOut",
          "type": "address"
        },
        {
          "internalType": "uint256",
          "name": "amount",
          "type": "uint256"
        },
        {
          "internalType": "uint24",
          "name": "uniswapFee",
          "type": "uint24"
        }
      ],
      "name": "checkProfitability",
      "outputs": [
        {
          "internalType": "bool",
          "name": "",
          "type": "bool"
        },
        {
          "internalType": "uint256",
          "name": "",
          "type": "uint256"
        }
      ],
      "stateMutability": "nonpayable",
      "type": "function"
    },
    {
      "inputs": [
        {
          "internalType": "address",
          "name": "token",
          "type": "address"
        }
      ],
      "name": "emergencyWithdraw",
      "outputs": [],
      "stateMutability": "nonpayable",
      "type": "function"
    },
    {
      "inputs": [
        {
          "internalType": "address",
          "name": "tokenIn",
          "type": "address"
        },
        {
          "internalType": "address",
          "name": "tokenOut",
          "type": "address"
        },
        {
          "internalType": "uint256",
          "name": "amount",
          "type": "uint256"
        },
        {
          "internalType": "uint24",
          "name": "uniswapFee",
          "type": "uint24"
        },
        {
          "internalType": "uint256",
          "name": "deadline",
          "type": "uint256"
        }
      ],
      "name": "executeArbitrage",
      "outputs": [],
      "stateMutability": "nonpayable",
      "type": "function"
    },
    {
      "inputs": [],
      "name": "owner",
      "outputs": [
        {
          "internalType": "address",
          "name": "",
          "type": "address"
        }
      ],
      "stateMutability": "view",
      "type": "function"
    },
    {
      "inputs": [
        {
          "internalType": "contract IERC20[]",
          "name": "tokens",
          "type": "address[]"
        },
        {
          "internalType": "uint256[]",
          "name": "amounts",
          "type": "uint256[]"
        },
        {
          "internalType": "uint256[]",
          "name": "feeAmounts",
          "type": "uint256[]"
        },
        {
          "internalType": "bytes",
          "name": "userData",
          "type": "bytes"
        }
      ],
      "name": "receiveFlashLoan",
      "outputs": [],
      "stateMutability": "nonpayable",
      "type": "function"
    }
  ],
  "bytecode": "0x60e06040523480156200001157600080fd5b50604051620017e4380380620017e4833981016040819052620000349162000084565b600160008190556001600160a01b0393841660805291831660a05290911660c05280546001600160a01b03191633179055620000d8565b6001600160a01b03811681146200008157600080fd5b50565b6000806000606084860312156200009a57600080fd5b8351620000a7816200006b565b6020850151909350620000ba816200006b565b6040850151909250620000cd816200006b565b809150509250925092565b60805160a05160c0516116b96200012b60003960008181610a8d01528181610d870152610e1f015260008181610b8c0152610c7a0152600081816102bf015281816105e401526107f401526116b96000f3fe608060405234801561001057600080fd5b506004361061007d5760003560e01c80636ff1c9bc1161005b5780636ff1c9bc146100dc5780638da5cb5b146100ef578063e1a452181461011a578063f04f27071461012357600080fd5b80630f99d51914610082578063507a2291146100975780635abaaa74146100b2575b600080fd5b610095610090366004610fb4565b610136565b005b61009f603281565b6040519081526020015b60405180910390f35b6100c56100c036600461100f565b6103b8565b6040805192151583526020830191909152016100a9565b6100956100ea366004611062565b6104a2565b600154610102906001600160a01b031681565b6040516001600160a01b0390911681526020016100a9565b61009f61271081565b6100956101313660046111cc565b6105d9565b61013e6109a2565b6001546001600160a01b0316331461018a5760405162461bcd60e51b815260206004820152600a60248201526927b7363c9037bbb732b960b11b60448201526064015b60405180910390fd5b6000610198868686866103b8565b509050806101e85760405162461bcd60e51b815260206004820152601960248201527f4e6f2070726f66697461626c65206f70706f7274756e697479000000000000006044820152606401610181565b60408051600180825281830190925260009160208083019080368337019050509050868160008151811061021e5761021e6112d7565b6001600160a01b039290921660209283029190910190910152604080516001808252818301909252600091816020016020820280368337019050509050858160008151811061026f5761026f6112d7565b60200260200101818152505060006040518060a001604052808a6001600160a01b03168152602001896001600160a01b031681526020018881526020018762ffffff1681526020018681525090507f00000000000000000000000000000000000000000000000000000000000000006001600160a01b0316635c38449e30858585604051602001610343919081516001600160a01b039081168252602080840151909116908201526040808301519082015260608083015162ffffff16908201526080918201519181019190915260a00190565b6040516020818303038152906040526040518563ffffffff1660e01b81526004016103719493929190611328565b600060405180830381600087803b15801561038b57600080fd5b505af115801561039f573d6000803e3d6000fd5b50505050505050506103b16001600055565b5050505050565b60008083816103c88789846109fb565b905060006127106103da8860026113f0565b6103e4919061140d565b90506103f0818861142f565b82111561048e576000610403828961142f565b61040d9084611442565b905060008861041e612710846113f0565b610428919061140d565b604080516001600160a01b03808f1682528d166020820152908101879052606081018690529091507f173af69db85fc7c0aecdbe45fc8b7a7d0873ad923ae56c1fb04ec3a98f5aa07e9060800160405180910390a1603211159550935061049992505050565b600080945094505050505b94509492505050565b6001546001600160a01b031633146104e95760405162461bcd60e51b815260206004820152600a60248201526927b7363c9037bbb732b960b11b6044820152606401610181565b6040516370a0823160e01b81523060048201526000906001600160a01b038316906370a0823190602401602060405180830381865afa158015610530573d6000803e3d6000fd5b505050506040513d601f19601f820116820180604052508101906105549190611455565b905080156105d55760015460405163a9059cbb60e01b81526001600160a01b039182166004820152602481018390529083169063a9059cbb906044016020604051808303816000875af11580156105af573d6000803e3d6000fd5b505050506040513d601f19601f820116820180604052508101906105d3919061146e565b505b5050565b336001600160a01b037f000000000000000000000000000000000000000000000000000000000000000016146106475760405162461bcd60e51b815260206004820152601360248201527213db9b1e4810985b185b98d95c8815985d5b1d606a1b6044820152606401610181565b60008180602001905181019061065d9190611490565b905060006106988260000151836020015187600081518110610681576106816112d7565b602002602001015185606001518660800151610b2f565b905060006106b483602001518460000151848660800151610cf5565b90506000856000815181106106cb576106cb6112d7565b6020026020010151876000815181106106e6576106e66112d7565b60200260200101516106f8919061142f565b6107029083611442565b9050600081116107405760405162461bcd60e51b8152602060048201526009602482015268139bc81c1c9bd99a5d60ba1b6044820152606401610181565b600087600081518110610755576107556112d7565b60200260200101516127108361076b91906113f0565b610775919061140d565b905060328110156107be5760405162461bcd60e51b8152602060048201526013602482015272125b9cdd59999a58da595b9d081c1c9bd99a5d606a1b6044820152606401610181565b60005b89518110156108d3578981815181106107dc576107dc6112d7565b60200260200101516001600160a01b031663a9059cbb7f00000000000000000000000000000000000000000000000000000000000000008a8481518110610825576108256112d7565b60200260200101518c858151811061083f5761083f6112d7565b6020026020010151610851919061142f565b6040516001600160e01b031960e085901b1681526001600160a01b03909216600483015260248201526044016020604051808303816000875af115801561089c573d6000803e3d6000fd5b505050506040513d601f19601f820116820180604052508101906108c0919061146e565b50806108cb81611518565b9150506107c1565b50811561095457845160015460405163a9059cbb60e01b81526001600160a01b0391821660048201526024810185905291169063a9059cbb906044016020604051808303816000875af115801561092e573d6000803e3d6000fd5b505050506040513d601f19601f82011682018060405250810190610952919061146e565b505b7f12024cca099db52261a6691770d3065970efa9afd5e6deafd4e1225e3a51201c61097e8a610ed8565b898460405161098f9392919061156a565b60405180910390a1505050505050505050565b6002600054036109f45760405162461bcd60e51b815260206004820152601f60248201527f5265656e7472616e637947756172643a207265656e7472616e742063616c6c006044820152606401610181565b6002600055565b604080516002808252606082018352600092839291906020830190803683370190505090508481600081518110610a3457610a346112d7565b60200260200101906001600160a01b031690816001600160a01b0316815250508381600181518110610a6857610a686112d7565b6001600160a01b03928316602091820292909201015260405163d06ca61f60e01b81527f00000000000000000000000000000000000000000000000000000000000000009091169063d06ca61f90610ac690869085906004016115a0565b600060405180830381865afa158015610ae3573d6000803e3d6000fd5b505050506040513d6000823e601f3d908101601f19168201604052610b0b91908101906115c1565b600181518110610b1d57610b1d6112d7565b60200260200101519150509392505050565b60408051610100810182526001600160a01b03878116808352878216602084015262ffffff8616838501523060608401526080830185905260a08301879052600060c0840181905260e08401819052935163095ea7b360e01b81527f00000000000000000000000000000000000000000000000000000000000000009092166004830152602482018790529063095ea7b3906044016020604051808303816000875af1158015610be3573d6000803e3d6000fd5b505050506040513d601f19601f82011682018060405250810190610c07919061146e565b506040805163414bf38960e01b815282516001600160a01b0390811660048301526020840151811660248301529183015162ffffff1660448201526060830151821660648201526080830151608482015260a083015160a482015260c083015160c482015260e0830151821660e48201527f00000000000000000000000000000000000000000000000000000000000000009091169063414bf38990610104016020604051808303816000875af1158015610cc6573d6000803e3d6000fd5b505050506040513d601f19601f82011682018060405250810190610cea9190611455565b979650505050505050565b604080516002808252606082018352600092839291906020830190803683370190505090508581600081518110610d2e57610d2e6112d7565b60200260200101906001600160a01b031690816001600160a01b0316815250508481600181518110610d6257610d626112d7565b6001600160a01b03928316602091820292909201015260405163095ea7b360e01b81527f000000000000000000000000000000000000000000000000000000000000000082166004820152602481018690529087169063095ea7b3906044016020604051808303816000875af1158015610de0573d6000803e3d6000fd5b505050506040513d601f19601f82011682018060405250810190610e04919061146e565b506040516338ed173960e01b81526000906001600160a01b037f000000000000000000000000000000000000000000000000000000000000000016906338ed173990610e5c9088908590879030908b90600401611647565b6000604051808303816000875af1158015610e7b573d6000803e3d6000fd5b505050506040513d6000823e601f3d908101601f19168201604052610ea391908101906115c1565b90508060018251610eb49190611442565b81518110610ec457610ec46112d7565b602002602001015192505050949350505050565b60606000825167ffffffffffffffff811115610ef657610ef6611086565b604051908082528060200260200182016040528015610f1f578160200160208202803683370190505b50905060005b8351811015610f8457838181518110610f4057610f406112d7565b6020026020010151828281518110610f5a57610f5a6112d7565b6001600160a01b039092166020928302919091019091015280610f7c81611518565b915050610f25565b5092915050565b6001600160a01b0381168114610fa057600080fd5b50565b62ffffff81168114610fa057600080fd5b600080600080600060a08688031215610fcc57600080fd5b8535610fd781610f8b565b94506020860135610fe781610f8b565b9350604086013592506060860135610ffe81610fa3565b949793965091946080013592915050565b6000806000806080858703121561102557600080fd5b843561103081610f8b565b9350602085013561104081610f8b565b925060408501359150606085013561105781610fa3565b939692955090935050565b60006020828403121561107457600080fd5b813561107f81610f8b565b9392505050565b634e487b7160e01b600052604160045260246000fd5b604051601f8201601f1916810167ffffffffffffffff811182821017156110c5576110c5611086565b604052919050565b600067ffffffffffffffff8211156110e7576110e7611086565b5060051b60200190565b600082601f83011261110257600080fd5b81356020611117611112836110cd565b61109c565b82815260059290921b8401810191818101908684111561113657600080fd5b8286015b84811015611151578035835291830191830161113a565b509695505050505050565b600082601f83011261116d57600080fd5b813567ffffffffffffffff81111561118757611187611086565b61119a601f8201601f191660200161109c565b8181528460208386010111156111af57600080fd5b816020850160208301376000918101602001919091529392505050565b600080600080608085870312156111e257600080fd5b843567ffffffffffffffff808211156111fa57600080fd5b818701915087601f83011261120e57600080fd5b8135602061121e611112836110cd565b82815260059290921b8401810191818101908b84111561123d57600080fd5b948201945b8386101561126457853561125581610f8b565b82529482019490820190611242565b9850508801359250508082111561127a57600080fd5b611286888389016110f1565b9450604087013591508082111561129c57600080fd5b6112a8888389016110f1565b935060608701359150808211156112be57600080fd5b506112cb8782880161115c565b91505092959194509250565b634e487b7160e01b600052603260045260246000fd5b600081518084526020808501945080840160005b8381101561131d57815187529582019590820190600101611301565b509495945050505050565b6001600160a01b0385811682526080602080840182905286519184018290526000928782019290919060a0860190855b81811015611376578551851683529483019491830191600101611358565b5050858103604087015261138a81896112ed565b93505084830360608601528551915081835260005b828110156113ba57868101820151848201830152810161139f565b506000838301820152601f909101601f1916909101019695505050505050565b634e487b7160e01b600052601160045260246000fd5b8082028115828204841417611407576114076113da565b92915050565b60008261142a57634e487b7160e01b600052601260045260246000fd5b500490565b80820180821115611407576114076113da565b81810381811115611407576114076113da565b60006020828403121561146757600080fd5b5051919050565b60006020828403121561148057600080fd5b8151801515811461107f57600080fd5b600060a082840312156114a257600080fd5b60405160a0810181811067ffffffffffffffff821117156114c5576114c5611086565b60405282516114d381610f8b565b815260208301516114e381610f8b565b602082015260408381015190820152606083015161150081610fa3565b60608201526080928301519281019290925250919050565b60006001820161152a5761152a6113da565b5060010190565b600081518084526020808501945080840160005b8381101561131d5781516001600160a01b031687529582019590820190600101611545565b60608152600061157d6060830186611531565b828103602084015261158f81866112ed565b915050826040830152949350505050565b8281526040602082015260006115b96040830184611531565b949350505050565b600060208083850312156115d457600080fd5b825167ffffffffffffffff8111156115eb57600080fd5b8301601f810185136115fc57600080fd5b805161160a611112826110cd565b81815260059190911b8201830190838101908783111561162957600080fd5b928401925b82841015610cea5783518252928401929084019061162e565b85815284602082015260a06040820152600061166660a0830186611531565b6001600160a01b039490941660608301525060800152939250505056fea26469706673582212200646aa4949ea4d4bbc7a08ca21123a82224f4860ea3f1a9065207337a382cb1664736f6c63430008140033",
  "linkReferences": {},
  "deployedLinkReferences": {}
}