{"contracts/FlashLoanArbitrage.sol":{"FlashLoanArbitrage":{"abi":[{"inputs":[{"internalType":"contract IVault","name":"_vault","type":"address"},{"internalType":"contract ISwapRouter","name":"_uniswapRouter","type":"address"},{"internalType":"contract IUniswapV2Router02","name":"_sushiswapRouter","type":"address"}],"stateMutability":"nonpayable","type":"constructor"},{"anonymous":false,"inputs":[{"indexed":false,"internalType":"address[]","name":"tokens","type":"address[]"},{"indexed":false,"internalType":"uint256[]","name":"amounts","type":"uint256[]"},{"indexed":false,"internalType":"uint256","name":"profit","type":"uint256"}],"name":"ArbitrageExecuted","type":"event"},{"anonymous":false,"inputs":[{"indexed":false,"internalType":"address","name":"token0","type":"address"},{"indexed":false,"internalType":"address","name":"token1","type":"address"},{"indexed":false,"internalType":"uint256","name":"uniswapPrice","type":"uint256"},{"indexed":false,"internalType":"uint256","name":"sushiswapPrice","type":"uint256"}],"name":"PriceChecked","type":"event"},{"inputs":[],"name":"BPS_DENOMINATOR","outputs":[{"internalType":"uint256","name":"","type":"uint256"}],"stateMutability":"view","type":"function"},{"inputs":[],"name":"MIN_PROFIT_BPS","outputs":[{"internalType":"uint256","name":"","type":"uint256"}],"stateMutability":"view","type":"function"},{"inputs":[{"internalType":"address","name":"tokenIn","type":"address"},{"internalType":"address","name":"tokenOut","type":"address"},{"internalType":"uint256","name":"amount","type":"uint256"},{"internalType":"uint24","name":"uniswapFee","type":"uint24"}],"name":"checkProfitability","outputs":[{"internalType":"bool","name":"","type":"bool"},{"internalType":"uint256","name":"","type":"uint256"}],"stateMutability":"nonpayable","type":"function"},{"inputs":[{"internalType":"address","name":"token","type":"address"}],"name":"emergencyWithdraw","outputs":[],"stateMutability":"nonpayable","type":"function"},{"inputs":[{"internalType":"address","name":"tokenIn","type":"address"},{"internalType":"address","name":"tokenOut","type":"address"},{"internalType":"uint256","name":"amount","type":"uint256"},{"internalType":"uint24","name":"uniswapFee","type":"uint24"},{"internalType":"uint256","name":"deadline","type":"uint256"}],"name":"executeArbitrage","outputs":[],"stateMutability":"nonpayable","type":"function"},{"inputs":[],"name":"owner","outputs":[{"internalType":"address","name":"","type":"address"}],"stateMutability":"view","type":"function"},{"inputs":[{"internalType":"contract IERC20[]","name":"tokens","type":"address[]"},{"internalType":"uint256[]","name":"amounts","type":"uint256[]"},{"internalType":"uint256[]","name":"feeAmounts","type":"uint256[]"},{"internalType":"bytes","name":"userData","type":"bytes"}],"name":"receiveFlashLoan","outputs":[],"stateMutability":"nonpayable","type":"function"}],"evm":{"bytecode":{"linkReferences":{},"object":"60e06040523480156200001157600080fd5b50604051620017e4380380620017e4833981016040819052620000349162000084565b600160008190556001600160a01b0393841660805291831660a05290911660c05280546001600160a01b03191633179055620000d8565b6001600160a01b03811681146200008157600080fd5b50565b6000806000606084860312156200009a57600080fd5b8351620000a7816200006b565b6020850151909350620000ba816200006b565b6040850151909250620000cd816200006b565b809150509250925092565b60805160a05160c0516116b96200012b60003960008181610a8d01528181610d870152610e1f015260008181610b8c0152610c7a0152600081816102bf015281816105e401526107f401526116b96000f3fe608060405234801561001057600080fd5b506004361061007d5760003560e01c80636ff1c9bc1161005b5780636ff1c9bc146100dc5780638da5cb5b146100ef578063e1a452181461011a578063f04f27071461012357600080fd5b80630f99d51914610082578063507a2291146100975780635abaaa74146100b2575b600080fd5b610095610090366004610fb4565b610136565b005b61009f603281565b6040519081526020015b60405180910390f35b6100c56100c036600461100f565b6103b8565b6040805192151583526020830191909152016100a9565b6100956100ea366004611062565b6104a2565b600154610102906001600160a01b031681565b6040516001600160a01b0390911681526020016100a9565b61009f61271081565b6100956101313660046111cc565b6105d9565b61013e6109a2565b6001546001600160a01b0316331461018a5760405162461bcd60e51b815260206004820152600a60248201526927b7363c9037bbb732b960b11b60448201526064015b60405180910390fd5b6000610198868686866103b8565b509050806101e85760405162461bcd60e51b815260206004820152601960248201527f4e6f2070726f66697461626c65206f70706f7274756e697479000000000000006044820152606401610181565b60408051600180825281830190925260009160208083019080368337019050509050868160008151811061021e5761021e6112d7565b6001600160a01b039290921660209283029190910190910152604080516001808252818301909252600091816020016020820280368337019050509050858160008151811061026f5761026f6112d7565b60200260200101818152505060006040518060a001604052808a6001600160a01b03168152602001896001600160a01b031681526020018881526020018762ffffff1681526020018681525090507f00000000000000000000000000000000000000000000000000000000000000006001600160a01b0316635c38449e30858585604051602001610343919081516001600160a01b039081168252602080840151909116908201526040808301519082015260608083015162ffffff16908201526080918201519181019190915260a00190565b6040516020818303038152906040526040518563ffffffff1660e01b81526004016103719493929190611328565b600060405180830381600087803b15801561038b57600080fd5b505af115801561039f573d6000803e3d6000fd5b50505050505050506103b16001600055565b5050505050565b60008083816103c88789846109fb565b905060006127106103da8860026113f0565b6103e4919061140d565b90506103f0818861142f565b82111561048e576000610403828961142f565b61040d9084611442565b905060008861041e612710846113f0565b610428919061140d565b604080516001600160a01b03808f1682528d166020820152908101879052606081018690529091507f173af69db85fc7c0aecdbe45fc8b7a7d0873ad923ae56c1fb04ec3a98f5aa07e9060800160405180910390a1603211159550935061049992505050565b600080945094505050505b94509492505050565b6001546001600160a01b031633146104e95760405162461bcd60e51b815260206004820152600a60248201526927b7363c9037bbb732b960b11b6044820152606401610181565b6040516370a0823160e01b81523060048201526000906001600160a01b038316906370a0823190602401602060405180830381865afa158015610530573d6000803e3d6000fd5b505050506040513d601f19601f820116820180604052508101906105549190611455565b905080156105d55760015460405163a9059cbb60e01b81526001600160a01b039182166004820152602481018390529083169063a9059cbb906044016020604051808303816000875af11580156105af573d6000803e3d6000fd5b505050506040513d601f19601f820116820180604052508101906105d3919061146e565b505b5050565b336001600160a01b037f000000000000000000000000000000000000000000000000000000000000000016146106475760405162461bcd60e51b815260206004820152601360248201527213db9b1e4810985b185b98d95c8815985d5b1d606a1b6044820152606401610181565b60008180602001905181019061065d9190611490565b905060006106988260000151836020015187600081518110610681576106816112d7565b602002602001015185606001518660800151610b2f565b905060006106b483602001518460000151848660800151610cf5565b90506000856000815181106106cb576106cb6112d7565b6020026020010151876000815181106106e6576106e66112d7565b60200260200101516106f8919061142f565b6107029083611442565b9050600081116107405760405162461bcd60e51b8152602060048201526009602482015268139bc81c1c9bd99a5d60ba1b6044820152606401610181565b600087600081518110610755576107556112d7565b60200260200101516127108361076b91906113f0565b610775919061140d565b905060328110156107be5760405162461bcd60e51b8152602060048201526013602482015272125b9cdd59999a58da595b9d081c1c9bd99a5d606a1b6044820152606401610181565b60005b89518110156108d3578981815181106107dc576107dc6112d7565b60200260200101516001600160a01b031663a9059cbb7f00000000000000000000000000000000000000000000000000000000000000008a8481518110610825576108256112d7565b60200260200101518c858151811061083f5761083f6112d7565b6020026020010151610851919061142f565b6040516001600160e01b031960e085901b1681526001600160a01b03909216600483015260248201526044016020604051808303816000875af115801561089c573d6000803e3d6000fd5b505050506040513d601f19601f820116820180604052508101906108c0919061146e565b50806108cb81611518565b9150506107c1565b50811561095457845160015460405163a9059cbb60e01b81526001600160a01b0391821660048201526024810185905291169063a9059cbb906044016020604051808303816000875af115801561092e573d6000803e3d6000fd5b505050506040513d601f19601f82011682018060405250810190610952919061146e565b505b7f12024cca099db52261a6691770d3065970efa9afd5e6deafd4e1225e3a51201c61097e8a610ed8565b898460405161098f9392919061156a565b60405180910390a1505050505050505050565b6002600054036109f45760405162461bcd60e51b815260206004820152601f60248201527f5265656e7472616e637947756172643a207265656e7472616e742063616c6c006044820152606401610181565b6002600055565b604080516002808252606082018352600092839291906020830190803683370190505090508481600081518110610a3457610a346112d7565b60200260200101906001600160a01b031690816001600160a01b0316815250508381600181518110610a6857610a686112d7565b6001600160a01b03928316602091820292909201015260405163d06ca61f60e01b81527f00000000000000000000000000000000000000000000000000000000000000009091169063d06ca61f90610ac690869085906004016115a0565b600060405180830381865afa158015610ae3573d6000803e3d6000fd5b505050506040513d6000823e601f3d908101601f19168201604052610b0b91908101906115c1565b600181518110610b1d57610b1d6112d7565b60200260200101519150509392505050565b60408051610100810182526001600160a01b03878116808352878216602084015262ffffff8616838501523060608401526080830185905260a08301879052600060c0840181905260e08401819052935163095ea7b360e01b81527f00000000000000000000000000000000000000000000000000000000000000009092166004830152602482018790529063095ea7b3906044016020604051808303816000875af1158015610be3573d6000803e3d6000fd5b505050506040513d601f19601f82011682018060405250810190610c07919061146e565b506040805163414bf38960e01b815282516001600160a01b0390811660048301526020840151811660248301529183015162ffffff1660448201526060830151821660648201526080830151608482015260a083015160a482015260c083015160c482015260e0830151821660e48201527f00000000000000000000000000000000000000000000000000000000000000009091169063414bf38990610104016020604051808303816000875af1158015610cc6573d6000803e3d6000fd5b505050506040513d601f19601f82011682018060405250810190610cea9190611455565b979650505050505050565b604080516002808252606082018352600092839291906020830190803683370190505090508581600081518110610d2e57610d2e6112d7565b60200260200101906001600160a01b031690816001600160a01b0316815250508481600181518110610d6257610d626112d7565b6001600160a01b03928316602091820292909201015260405163095ea7b360e01b81527f000000000000000000000000000000000000000000000000000000000000000082166004820152602481018690529087169063095ea7b3906044016020604051808303816000875af1158015610de0573d6000803e3d6000fd5b505050506040513d601f19601f82011682018060405250810190610e04919061146e565b506040516338ed173960e01b81526000906001600160a01b037f000000000000000000000000000000000000000000000000000000000000000016906338ed173990610e5c9088908590879030908b90600401611647565b6000604051808303816000875af1158015610e7b573d6000803e3d6000fd5b505050506040513d6000823e601f3d908101601f19168201604052610ea391908101906115c1565b90508060018251610eb49190611442565b81518110610ec457610ec46112d7565b602002602001015192505050949350505050565b60606000825167ffffffffffffffff811115610ef657610ef6611086565b604051908082528060200260200182016040528015610f1f578160200160208202803683370190505b50905060005b8351811015610f8457838181518110610f4057610f406112d7565b6020026020010151828281518110610f5a57610f5a6112d7565b6001600160a01b039092166020928302919091019091015280610f7c81611518565b915050610f25565b5092915050565b6001600160a01b0381168114610fa057600080fd5b50565b62ffffff81168114610fa057600080fd5b600080600080600060a08688031215610fcc57600080fd5b8535610fd781610f8b565b94506020860135610fe781610f8b565b9350604086013592506060860135610ffe81610fa3565b949793965091946080013592915050565b6000806000806080858703121561102557600080fd5b843561103081610f8b565b9350602085013561104081610f8b565b925060408501359150606085013561105781610fa3565b939692955090935050565b60006020828403121561107457600080fd5b813561107f81610f8b565b9392505050565b634e487b7160e01b600052604160045260246000fd5b604051601f8201601f1916810167ffffffffffffffff811182821017156110c5576110c5611086565b604052919050565b600067ffffffffffffffff8211156110e7576110e7611086565b5060051b60200190565b600082601f83011261110257600080fd5b81356020611117611112836110cd565b61109c565b82815260059290921b8401810191818101908684111561113657600080fd5b8286015b84811015611151578035835291830191830161113a565b509695505050505050565b600082601f83011261116d57600080fd5b813567ffffffffffffffff81111561118757611187611086565b61119a601f8201601f191660200161109c565b8181528460208386010111156111af57600080fd5b816020850160208301376000918101602001919091529392505050565b600080600080608085870312156111e257600080fd5b843567ffffffffffffffff808211156111fa57600080fd5b818701915087601f83011261120e57600080fd5b8135602061121e611112836110cd565b82815260059290921b8401810191818101908b84111561123d57600080fd5b948201945b8386101561126457853561125581610f8b565b82529482019490820190611242565b9850508801359250508082111561127a57600080fd5b611286888389016110f1565b9450604087013591508082111561129c57600080fd5b6112a8888389016110f1565b935060608701359150808211156112be57600080fd5b506112cb8782880161115c565b91505092959194509250565b634e487b7160e01b600052603260045260246000fd5b600081518084526020808501945080840160005b8381101561131d57815187529582019590820190600101611301565b509495945050505050565b6001600160a01b0385811682526080602080840182905286519184018290526000928782019290919060a0860190855b81811015611376578551851683529483019491830191600101611358565b5050858103604087015261138a81896112ed565b93505084830360608601528551915081835260005b828110156113ba57868101820151848201830152810161139f565b506000838301820152601f909101601f1916909101019695505050505050565b634e487b7160e01b600052601160045260246000fd5b8082028115828204841417611407576114076113da565b92915050565b60008261142a57634e487b7160e01b600052601260045260246000fd5b500490565b80820180821115611407576114076113da565b81810381811115611407576114076113da565b60006020828403121561146757600080fd5b5051919050565b60006020828403121561148057600080fd5b8151801515811461107f57600080fd5b600060a082840312156114a257600080fd5b60405160a0810181811067ffffffffffffffff821117156114c5576114c5611086565b60405282516114d381610f8b565b815260208301516114e381610f8b565b602082015260408381015190820152606083015161150081610fa3565b60608201526080928301519281019290925250919050565b60006001820161152a5761152a6113da565b5060010190565b600081518084526020808501945080840160005b8381101561131d5781516001600160a01b031687529582019590820190600101611545565b60608152600061157d6060830186611531565b828103602084015261158f81866112ed565b915050826040830152949350505050565b8281526040602082015260006115b96040830184611531565b949350505050565b600060208083850312156115d457600080fd5b825167ffffffffffffffff8111156115eb57600080fd5b8301601f810185136115fc57600080fd5b805161160a611112826110cd565b81815260059190911b8201830190838101908783111561162957600080fd5b928401925b82841015610cea5783518252928401929084019061162e565b85815284602082015260a06040820152600061166660a0830186611531565b6001600160a01b039490941660608301525060800152939250505056fea26469706673582212200646aa4949ea4d4bbc7a08ca21123a82224f4860ea3f1a9065207337a382cb1664736f6c63430008140033","opcodes":"PUSH1 0xE0 PUSH1 0x40 MSTORE CALLVALUE DUP1 ISZERO PUSH3 0x11 JUMPI PUSH1 0x0 DUP1 REVERT JUMPDEST POP PUSH1 0x40 MLOAD PUSH3 0x17E4 CODESIZE SUB DUP1 PUSH3 0x17E4 DUP4 CODECOPY DUP2 ADD PUSH1 0x40 DUP2 SWAP1 MSTORE PUSH3 0x34 SWAP2 PUSH3 0x84 JUMP JUMPDEST PUSH1 0x1 PUSH1 0x0 DUP2 SWAP1 SSTORE PUSH1 0x1 PUSH1 0x1 PUSH1 0xA0 SHL SUB SWAP4 DUP5 AND PUSH1 0x80 MSTORE SWAP2 DUP4 AND PUSH1 0xA0 MSTORE SWAP1 SWAP2 AND PUSH1 0xC0 MSTORE DUP1 SLOAD PUSH1 0x1 PUSH1 0x1 PUSH1 0xA0 SHL SUB NOT AND CALLER OR SWAP1 SSTORE PUSH3 0xD8 JUMP JUMPDEST PUSH1 0x1 PUSH1 0x1 PUSH1 0xA0 SHL SUB DUP2 AND DUP2 EQ PUSH3 0x81 JUMPI PUSH1 0x0 DUP1 REVERT JUMPDEST POP JUMP JUMPDEST PUSH1 0x0 DUP1 PUSH1 0x0 PUSH1 0x60 DUP5 DUP7 SUB SLT ISZERO PUSH3 0x9A JUMPI PUSH1 0x0 DUP1 REVERT JUMPDEST DUP4 MLOAD PUSH3 0xA7 DUP2 PUSH3 0x6B JUMP JUMPDEST PUSH1 0x20 DUP6 ADD MLOAD SWAP1 SWAP4 POP PUSH3 0xBA DUP2 PUSH3 0x6B JUMP JUMPDEST PUSH1 0x40 DUP6 ADD MLOAD SWAP1 SWAP3 POP PUSH3 0xCD DUP2 PUSH3 0x6B JUMP JUMPDEST DUP1 SWAP2 POP POP SWAP3 POP SWAP3 POP SWAP3 JUMP JUMPDEST PUSH1 0x80 MLOAD PUSH1 0xA0 MLOAD PUSH1 0xC0 MLOAD PUSH2 0x16B9 PUSH3 0x12B PUSH1 0x0 CODECOPY PUSH1 0x0 DUP2 DUP2 PUSH2 0xA8D ADD MSTORE DUP2 DUP2 PUSH2 0xD87 ADD MSTORE PUSH2 0xE1F ADD MSTORE PUSH1 0x0 DUP2 DUP2 PUSH2 0xB8C ADD MSTORE PUSH2 0xC7A ADD MSTORE PUSH1 0x0 DUP2 DUP2 PUSH2 0x2BF ADD MSTORE DUP2 DUP2 PUSH2 0x5E4 ADD MSTORE PUSH2 0x7F4 ADD MSTORE PUSH2 0x16B9 PUSH1 0x0 RETURN INVALID PUSH1 0x80 PUSH1 0x40 MSTORE CALLVALUE DUP1 ISZERO PUSH2 0x10 JUMPI PUSH1 0x0 DUP1 REVERT JUMPDEST POP PUSH1 0x4 CALLDATASIZE LT PUSH2 0x7D JUMPI PUSH1 0x0 CALLDATALOAD PUSH1 0xE0 SHR DUP1 PUSH4 0x6FF1C9BC GT PUSH2 0x5B JUMPI DUP1 PUSH4 0x6FF1C9BC EQ PUSH2 0xDC JUMPI DUP1 PUSH4 0x8DA5CB5B EQ PUSH2 0xEF JUMPI DUP1 PUSH4 0xE1A45218 EQ PUSH2 0x11A JUMPI DUP1 PUSH4 0xF04F2707 EQ PUSH2 0x123 JUMPI PUSH1 0x0 DUP1 REVERT JUMPDEST DUP1 PUSH4 0xF99D519 EQ PUSH2 0x82 JUMPI DUP1 PUSH4 0x507A2291 EQ PUSH2 0x97 JUMPI DUP1 PUSH4 0x5ABAAA74 EQ PUSH2 0xB2 JUMPI JUMPDEST PUSH1 0x0 DUP1 REVERT JUMPDEST PUSH2 0x95 PUSH2 0x90 CALLDATASIZE PUSH1 0x4 PUSH2 0xFB4 JUMP JUMPDEST PUSH2 0x136 JUMP JUMPDEST STOP JUMPDEST PUSH2 0x9F PUSH1 0x32 DUP2 JUMP JUMPDEST PUSH1 0x40 MLOAD SWAP1 DUP2 MSTORE PUSH1 0x20 ADD JUMPDEST PUSH1 0x40 MLOAD DUP1 SWAP2 SUB SWAP1 RETURN JUMPDEST PUSH2 0xC5 PUSH2 0xC0 CALLDATASIZE PUSH1 0x4 PUSH2 0x100F JUMP JUMPDEST PUSH2 0x3B8 JUMP JUMPDEST PUSH1 0x40 DUP1 MLOAD SWAP3 ISZERO ISZERO DUP4 MSTORE PUSH1 0x20 DUP4 ADD SWAP2 SWAP1 SWAP2 MSTORE ADD PUSH2 0xA9 JUMP JUMPDEST PUSH2 0x95 PUSH2 0xEA CALLDATASIZE PUSH1 0x4 PUSH2 0x1062 JUMP JUMPDEST PUSH2 0x4A2 JUMP JUMPDEST PUSH1 0x1 SLOAD PUSH2 0x102 SWAP1 PUSH1 0x1 PUSH1 0x1 PUSH1 0xA0 SHL SUB AND DUP2 JUMP JUMPDEST PUSH1 0x40 MLOAD PUSH1 0x1 PUSH1 0x1 PUSH1 0xA0 SHL SUB SWAP1 SWAP2 AND DUP2 MSTORE PUSH1 0x20 ADD PUSH2 0xA9 JUMP JUMPDEST PUSH2 0x9F PUSH2 0x2710 DUP2 JUMP JUMPDEST PUSH2 0x95 PUSH2 0x131 CALLDATASIZE PUSH1 0x4 PUSH2 0x11CC JUMP JUMPDEST PUSH2 0x5D9 JUMP JUMPDEST PUSH2 0x13E PUSH2 0x9A2 JUMP JUMPDEST PUSH1 0x1 SLOAD PUSH1 0x1 PUSH1 0x1 PUSH1 0xA0 SHL SUB AND CALLER EQ PUSH2 0x18A JUMPI PUSH1 0x40 MLOAD PUSH3 0x461BCD PUSH1 0xE5 SHL DUP2 MSTORE PUSH1 0x20 PUSH1 0x4 DUP3 ADD MSTORE PUSH1 0xA PUSH1 0x24 DUP3 ADD MSTORE PUSH10 0x27B7363C9037BBB732B9 PUSH1 0xB1 SHL PUSH1 0x44 DUP3 ADD MSTORE PUSH1 0x64 ADD JUMPDEST PUSH1 0x40 MLOAD DUP1 SWAP2 SUB SWAP1 REVERT JUMPDEST PUSH1 0x0 PUSH2 0x198 DUP7 DUP7 DUP7 DUP7 PUSH2 0x3B8 JUMP JUMPDEST POP SWAP1 POP DUP1 PUSH2 0x1E8 JUMPI PUSH1 0x40 MLOAD PUSH3 0x461BCD PUSH1 0xE5 SHL DUP2 MSTORE PUSH1 0x20 PUSH1 0x4 DUP3 ADD MSTORE PUSH1 0x19 PUSH1 0x24 DUP3 ADD MSTORE PUSH32 0x4E6F2070726F66697461626C65206F70706F7274756E69747900000000000000 PUSH1 0x44 DUP3 ADD MSTORE PUSH1 0x64 ADD PUSH2 0x181 JUMP JUMPDEST PUSH1 0x40 DUP1 MLOAD PUSH1 0x1 DUP1 DUP3 MSTORE DUP2 DUP4 ADD SWAP1 SWAP3 MSTORE PUSH1 0x0 SWAP2 PUSH1 0x20 DUP1 DUP4 ADD SWAP1 DUP1 CALLDATASIZE DUP4 CALLDATACOPY ADD SWAP1 POP POP SWAP1 POP DUP7 DUP2 PUSH1 0x0 DUP2 MLOAD DUP2 LT PUSH2 0x21E JUMPI PUSH2 0x21E PUSH2 0x12D7 JUMP JUMPDEST PUSH1 0x1 PUSH1 0x1 PUSH1 0xA0 SHL SUB SWAP3 SWAP1 SWAP3 AND PUSH1 0x20 SWAP3 DUP4 MUL SWAP2 SWAP1 SWAP2 ADD SWAP1 SWAP2 ADD MSTORE PUSH1 0x40 DUP1 MLOAD PUSH1 0x1 DUP1 DUP3 MSTORE DUP2 DUP4 ADD SWAP1 SWAP3 MSTORE PUSH1 0x0 SWAP2 DUP2 PUSH1 0x20 ADD PUSH1 0x20 DUP3 MUL DUP1 CALLDATASIZE DUP4 CALLDATACOPY ADD SWAP1 POP POP SWAP1 POP DUP6 DUP2 PUSH1 0x0 DUP2 MLOAD DUP2 LT PUSH2 0x26F JUMPI PUSH2 0x26F PUSH2 0x12D7 JUMP JUMPDEST PUSH1 0x20 MUL PUSH1 0x20 ADD ADD DUP2 DUP2 MSTORE POP POP PUSH1 0x0 PUSH1 0x40 MLOAD DUP1 PUSH1 0xA0 ADD PUSH1 0x40 MSTORE DUP1 DUP11 PUSH1 0x1 PUSH1 0x1 PUSH1 0xA0 SHL SUB AND DUP2 MSTORE PUSH1 0x20 ADD DUP10 PUSH1 0x1 PUSH1 0x1 PUSH1 0xA0 SHL SUB AND DUP2 MSTORE PUSH1 0x20 ADD DUP9 DUP2 MSTORE PUSH1 0x20 ADD DUP8 PUSH3 0xFFFFFF AND DUP2 MSTORE PUSH1 0x20 ADD DUP7 DUP2 MSTORE POP SWAP1 POP PUSH32 0x0 PUSH1 0x1 PUSH1 0x1 PUSH1 0xA0 SHL SUB AND PUSH4 0x5C38449E ADDRESS DUP6 DUP6 DUP6 PUSH1 0x40 MLOAD PUSH1 0x20 ADD PUSH2 0x343 SWAP2 SWAP1 DUP2 MLOAD PUSH1 0x1 PUSH1 0x1 PUSH1 0xA0 SHL SUB SWAP1 DUP2 AND DUP3 MSTORE PUSH1 0x20 DUP1 DUP5 ADD MLOAD SWAP1 SWAP2 AND SWAP1 DUP3 ADD MSTORE PUSH1 0x40 DUP1 DUP4 ADD MLOAD SWAP1 DUP3 ADD MSTORE PUSH1 0x60 DUP1 DUP4 ADD MLOAD PUSH3 0xFFFFFF AND SWAP1 DUP3 ADD MSTORE PUSH1 0x80 SWAP2 DUP3 ADD MLOAD SWAP2 DUP2 ADD SWAP2 SWAP1 SWAP2 MSTORE PUSH1 0xA0 ADD SWAP1 JUMP JUMPDEST PUSH1 0x40 MLOAD PUSH1 0x20 DUP2 DUP4 SUB SUB DUP2 MSTORE SWAP1 PUSH1 0x40 MSTORE PUSH1 0x40 MLOAD DUP6 PUSH4 0xFFFFFFFF AND PUSH1 0xE0 SHL DUP2 MSTORE PUSH1 0x4 ADD PUSH2 0x371 SWAP5 SWAP4 SWAP3 SWAP2 SWAP1 PUSH2 0x1328 JUMP JUMPDEST PUSH1 0x0 PUSH1 0x40 MLOAD DUP1 DUP4 SUB DUP2 PUSH1 0x0 DUP8 DUP1 EXTCODESIZE ISZERO DUP1 ISZERO PUSH2 0x38B JUMPI PUSH1 0x0 DUP1 REVERT JUMPDEST POP GAS CALL ISZERO DUP1 ISZERO PUSH2 0x39F JUMPI RETURNDATASIZE PUSH1 0x0 DUP1 RETURNDATACOPY RETURNDATASIZE PUSH1 0x0 REVERT JUMPDEST POP POP POP POP POP POP POP POP PUSH2 0x3B1 PUSH1 0x1 PUSH1 0x0 SSTORE JUMP JUMPDEST POP POP POP POP POP JUMP JUMPDEST PUSH1 0x0 DUP1 DUP4 DUP2 PUSH2 0x3C8 DUP8 DUP10 DUP5 PUSH2 0x9FB JUMP JUMPDEST SWAP1 POP PUSH1 0x0 PUSH2 0x2710 PUSH2 0x3DA DUP9 PUSH1 0x2 PUSH2 0x13F0 JUMP JUMPDEST PUSH2 0x3E4 SWAP2 SWAP1 PUSH2 0x140D JUMP JUMPDEST SWAP1 POP PUSH2 0x3F0 DUP2 DUP9 PUSH2 0x142F JUMP JUMPDEST DUP3 GT ISZERO PUSH2 0x48E JUMPI PUSH1 0x0 PUSH2 0x403 DUP3 DUP10 PUSH2 0x142F JUMP JUMPDEST PUSH2 0x40D SWAP1 DUP5 PUSH2 0x1442 JUMP JUMPDEST SWAP1 POP PUSH1 0x0 DUP9 PUSH2 0x41E PUSH2 0x2710 DUP5 PUSH2 0x13F0 JUMP JUMPDEST PUSH2 0x428 SWAP2 SWAP1 PUSH2 0x140D JUMP JUMPDEST PUSH1 0x40 DUP1 MLOAD PUSH1 0x1 PUSH1 0x1 PUSH1 0xA0 SHL SUB DUP1 DUP16 AND DUP3 MSTORE DUP14 AND PUSH1 0x20 DUP3 ADD MSTORE SWAP1 DUP2 ADD DUP8 SWAP1 MSTORE PUSH1 0x60 DUP2 ADD DUP7 SWAP1 MSTORE SWAP1 SWAP2 POP PUSH32 0x173AF69DB85FC7C0AECDBE45FC8B7A7D0873AD923AE56C1FB04EC3A98F5AA07E SWAP1 PUSH1 0x80 ADD PUSH1 0x40 MLOAD DUP1 SWAP2 SUB SWAP1 LOG1 PUSH1 0x32 GT ISZERO SWAP6 POP SWAP4 POP PUSH2 0x499 SWAP3 POP POP POP JUMP JUMPDEST PUSH1 0x0 DUP1 SWAP5 POP SWAP5 POP POP POP POP JUMPDEST SWAP5 POP SWAP5 SWAP3 POP POP POP JUMP JUMPDEST PUSH1 0x1 SLOAD PUSH1 0x1 PUSH1 0x1 PUSH1 0xA0 SHL SUB AND CALLER EQ PUSH2 0x4E9 JUMPI PUSH1 0x40 MLOAD PUSH3 0x461BCD PUSH1 0xE5 SHL DUP2 MSTORE PUSH1 0x20 PUSH1 0x4 DUP3 ADD MSTORE PUSH1 0xA PUSH1 0x24 DUP3 ADD MSTORE PUSH10 0x27B7363C9037BBB732B9 PUSH1 0xB1 SHL PUSH1 0x44 DUP3 ADD MSTORE PUSH1 0x64 ADD PUSH2 0x181 JUMP JUMPDEST PUSH1 0x40 MLOAD PUSH4 0x70A08231 PUSH1 0xE0 SHL DUP2 MSTORE ADDRESS PUSH1 0x4 DUP3 ADD MSTORE PUSH1 0x0 SWAP1 PUSH1 0x1 PUSH1 0x1 PUSH1 0xA0 SHL SUB DUP4 AND SWAP1 PUSH4 0x70A08231 SWAP1 PUSH1 0x24 ADD PUSH1 0x20 PUSH1 0x40 MLOAD DUP1 DUP4 SUB DUP2 DUP7 GAS STATICCALL ISZERO DUP1 ISZERO PUSH2 0x530 JUMPI RETURNDATASIZE PUSH1 0x0 DUP1 RETURNDATACOPY RETURNDATASIZE PUSH1 0x0 REVERT JUMPDEST POP POP POP POP PUSH1 0x40 MLOAD RETURNDATASIZE PUSH1 0x1F NOT PUSH1 0x1F DUP3 ADD AND DUP3 ADD DUP1 PUSH1 0x40 MSTORE POP DUP2 ADD SWAP1 PUSH2 0x554 SWAP2 SWAP1 PUSH2 0x1455 JUMP JUMPDEST SWAP1 POP DUP1 ISZERO PUSH2 0x5D5 JUMPI PUSH1 0x1 SLOAD PUSH1 0x40 MLOAD PUSH4 0xA9059CBB PUSH1 0xE0 SHL DUP2 MSTORE PUSH1 0x1 PUSH1 0x1 PUSH1 0xA0 SHL SUB SWAP2 DUP3 AND PUSH1 0x4 DUP3 ADD MSTORE PUSH1 0x24 DUP2 ADD DUP4 SWAP1 MSTORE SWAP1 DUP4 AND SWAP1 PUSH4 0xA9059CBB SWAP1 PUSH1 0x44 ADD PUSH1 0x20 PUSH1 0x40 MLOAD DUP1 DUP4 SUB DUP2 PUSH1 0x0 DUP8 GAS CALL ISZERO DUP1 ISZERO PUSH2 0x5AF JUMPI RETURNDATASIZE PUSH1 0x0 DUP1 RETURNDATACOPY RETURNDATASIZE PUSH1 0x0 REVERT JUMPDEST POP POP POP POP PUSH1 0x40 MLOAD RETURNDATASIZE PUSH1 0x1F NOT PUSH1 0x1F DUP3 ADD AND DUP3 ADD DUP1 PUSH1 0x40 MSTORE POP DUP2 ADD SWAP1 PUSH2 0x5D3 SWAP2 SWAP1 PUSH2 0x146E JUMP JUMPDEST POP JUMPDEST POP POP JUMP JUMPDEST CALLER PUSH1 0x1 PUSH1 0x1 PUSH1 0xA0 SHL SUB PUSH32 0x0 AND EQ PUSH2 0x647 JUMPI PUSH1 0x40 MLOAD PUSH3 0x461BCD PUSH1 0xE5 SHL DUP2 MSTORE PUSH1 0x20 PUSH1 0x4 DUP3 ADD MSTORE PUSH1 0x13 PUSH1 0x24 DUP3 ADD MSTORE PUSH19 0x13DB9B1E4810985B185B98D95C8815985D5B1D PUSH1 0x6A SHL PUSH1 0x44 DUP3 ADD MSTORE PUSH1 0x64 ADD PUSH2 0x181 JUMP JUMPDEST PUSH1 0x0 DUP2 DUP1 PUSH1 0x20 ADD SWAP1 MLOAD DUP2 ADD SWAP1 PUSH2 0x65D SWAP2 SWAP1 PUSH2 0x1490 JUMP JUMPDEST SWAP1 POP PUSH1 0x0 PUSH2 0x698 DUP3 PUSH1 0x0 ADD MLOAD DUP4 PUSH1 0x20 ADD MLOAD DUP8 PUSH1 0x0 DUP2 MLOAD DUP2 LT PUSH2 0x681 JUMPI PUSH2 0x681 PUSH2 0x12D7 JUMP JUMPDEST PUSH1 0x20 MUL PUSH1 0x20 ADD ADD MLOAD DUP6 PUSH1 0x60 ADD MLOAD DUP7 PUSH1 0x80 ADD MLOAD PUSH2 0xB2F JUMP JUMPDEST SWAP1 POP PUSH1 0x0 PUSH2 0x6B4 DUP4 PUSH1 0x20 ADD MLOAD DUP5 PUSH1 0x0 ADD MLOAD DUP5 DUP7 PUSH1 0x80 ADD MLOAD PUSH2 0xCF5 JUMP JUMPDEST SWAP1 POP PUSH1 0x0 DUP6 PUSH1 0x0 DUP2 MLOAD DUP2 LT PUSH2 0x6CB JUMPI PUSH2 0x6CB PUSH2 0x12D7 JUMP JUMPDEST PUSH1 0x20 MUL PUSH1 0x20 ADD ADD MLOAD DUP8 PUSH1 0x0 DUP2 MLOAD DUP2 LT PUSH2 0x6E6 JUMPI PUSH2 0x6E6 PUSH2 0x12D7 JUMP JUMPDEST PUSH1 0x20 MUL PUSH1 0x20 ADD ADD MLOAD PUSH2 0x6F8 SWAP2 SWAP1 PUSH2 0x142F JUMP JUMPDEST PUSH2 0x702 SWAP1 DUP4 PUSH2 0x1442 JUMP JUMPDEST SWAP1 POP PUSH1 0x0 DUP2 GT PUSH2 0x740 JUMPI PUSH1 0x40 MLOAD PUSH3 0x461BCD PUSH1 0xE5 SHL DUP2 MSTORE PUSH1 0x20 PUSH1 0x4 DUP3 ADD MSTORE PUSH1 0x9 PUSH1 0x24 DUP3 ADD MSTORE PUSH9 0x139BC81C1C9BD99A5D PUSH1 0xBA SHL PUSH1 0x44 DUP3 ADD MSTORE PUSH1 0x64 ADD PUSH2 0x181 JUMP JUMPDEST PUSH1 0x0 DUP8 PUSH1 0x0 DUP2 MLOAD DUP2 LT PUSH2 0x755 JUMPI PUSH2 0x755 PUSH2 0x12D7 JUMP JUMPDEST PUSH1 0x20 MUL PUSH1 0x20 ADD ADD MLOAD PUSH2 0x2710 DUP4 PUSH2 0x76B SWAP2 SWAP1 PUSH2 0x13F0 JUMP JUMPDEST PUSH2 0x775 SWAP2 SWAP1 PUSH2 0x140D JUMP JUMPDEST SWAP1 POP PUSH1 0x32 DUP2 LT ISZERO PUSH2 0x7BE JUMPI PUSH1 0x40 MLOAD PUSH3 0x461BCD PUSH1 0xE5 SHL DUP2 MSTORE PUSH1 0x20 PUSH1 0x4 DUP3 ADD MSTORE PUSH1 0x13 PUSH1 0x24 DUP3 ADD MSTORE PUSH19 0x125B9CDD59999A58DA595B9D081C1C9BD99A5D PUSH1 0x6A SHL PUSH1 0x44 DUP3 ADD MSTORE PUSH1 0x64 ADD PUSH2 0x181 JUMP JUMPDEST PUSH1 0x0 JUMPDEST DUP10 MLOAD DUP2 LT ISZERO PUSH2 0x8D3 JUMPI DUP10 DUP2 DUP2 MLOAD DUP2 LT PUSH2 0x7DC JUMPI PUSH2 0x7DC PUSH2 0x12D7 JUMP JUMPDEST PUSH1 0x20 MUL PUSH1 0x20 ADD ADD MLOAD PUSH1 0x1 PUSH1 0x1 PUSH1 0xA0 SHL SUB AND PUSH4 0xA9059CBB PUSH32 0x0 DUP11 DUP5 DUP2 MLOAD DUP2 LT PUSH2 0x825 JUMPI PUSH2 0x825 PUSH2 0x12D7 JUMP JUMPDEST PUSH1 0x20 MUL PUSH1 0x20 ADD ADD MLOAD DUP13 DUP6 DUP2 MLOAD DUP2 LT PUSH2 0x83F JUMPI PUSH2 0x83F PUSH2 0x12D7 JUMP JUMPDEST PUSH1 0x20 MUL PUSH1 0x20 ADD ADD MLOAD PUSH2 0x851 SWAP2 SWAP1 PUSH2 0x142F JUMP JUMPDEST PUSH1 0x40 MLOAD PUSH1 0x1 PUSH1 0x1 PUSH1 0xE0 SHL SUB NOT PUSH1 0xE0 DUP6 SWAP1 SHL AND DUP2 MSTORE PUSH1 0x1 PUSH1 0x1 PUSH1 0xA0 SHL SUB SWAP1 SWAP3 AND PUSH1 0x4 DUP4 ADD MSTORE PUSH1 0x24 DUP3 ADD MSTORE PUSH1 0x44 ADD PUSH1 0x20 PUSH1 0x40 MLOAD DUP1 DUP4 SUB DUP2 PUSH1 0x0 DUP8 GAS CALL ISZERO DUP1 ISZERO PUSH2 0x89C JUMPI RETURNDATASIZE PUSH1 0x0 DUP1 RETURNDATACOPY RETURNDATASIZE PUSH1 0x0 REVERT JUMPDEST POP POP POP POP PUSH1 0x40 MLOAD RETURNDATASIZE PUSH1 0x1F NOT PUSH1 0x1F DUP3 ADD AND DUP3 ADD DUP1 PUSH1 0x40 MSTORE POP DUP2 ADD SWAP1 PUSH2 0x8C0 SWAP2 SWAP1 PUSH2 0x146E JUMP JUMPDEST POP DUP1 PUSH2 0x8CB DUP2 PUSH2 0x1518 JUMP JUMPDEST SWAP2 POP POP PUSH2 0x7C1 JUMP JUMPDEST POP DUP2 ISZERO PUSH2 0x954 JUMPI DUP5 MLOAD PUSH1 0x1 SLOAD PUSH1 0x40 MLOAD PUSH4 0xA9059CBB PUSH1 0xE0 SHL DUP2 MSTORE PUSH1 0x1 PUSH1 0x1 PUSH1 0xA0 SHL SUB SWAP2 DUP3 AND PUSH1 0x4 DUP3 ADD MSTORE PUSH1 0x24 DUP2 ADD DUP6 SWAP1 MSTORE SWAP2 AND SWAP1 PUSH4 0xA9059CBB SWAP1 PUSH1 0x44 ADD PUSH1 0x20 PUSH1 0x40 MLOAD DUP1 DUP4 SUB DUP2 PUSH1 0x0 DUP8 GAS CALL ISZERO DUP1 ISZERO PUSH2 0x92E JUMPI RETURNDATASIZE PUSH1 0x0 DUP1 RETURNDATACOPY RETURNDATASIZE PUSH1 0x0 REVERT JUMPDEST POP POP POP POP PUSH1 0x40 MLOAD RETURNDATASIZE PUSH1 0x1F NOT PUSH1 0x1F DUP3 ADD AND DUP3 ADD DUP1 PUSH1 0x40 MSTORE POP DUP2 ADD SWAP1 PUSH2 0x952 SWAP2 SWAP1 PUSH2 0x146E JUMP JUMPDEST POP JUMPDEST PUSH32 0x12024CCA099DB52261A6691770D3065970EFA9AFD5E6DEAFD4E1225E3A51201C PUSH2 0x97E DUP11 PUSH2 0xED8 JUMP JUMPDEST DUP10 DUP5 PUSH1 0x40 MLOAD PUSH2 0x98F SWAP4 SWAP3 SWAP2 SWAP1 PUSH2 0x156A JUMP JUMPDEST PUSH1 0x40 MLOAD DUP1 SWAP2 SUB SWAP1 LOG1 POP POP POP POP POP POP POP POP POP JUMP JUMPDEST PUSH1 0x2 PUSH1 0x0 SLOAD SUB PUSH2 0x9F4 JUMPI PUSH1 0x40 MLOAD PUSH3 0x461BCD PUSH1 0xE5 SHL DUP2 MSTORE PUSH1 0x20 PUSH1 0x4 DUP3 ADD MSTORE PUSH1 0x1F PUSH1 0x24 DUP3 ADD MSTORE PUSH32 0x5265656E7472616E637947756172643A207265656E7472616E742063616C6C00 PUSH1 0x44 DUP3 ADD MSTORE PUSH1 0x64 ADD PUSH2 0x181 JUMP JUMPDEST PUSH1 0x2 PUSH1 0x0 SSTORE JUMP JUMPDEST PUSH1 0x40 DUP1 MLOAD PUSH1 0x2 DUP1 DUP3 MSTORE PUSH1 0x60 DUP3 ADD DUP4 MSTORE PUSH1 0x0 SWAP3 DUP4 SWAP3 SWAP2 SWAP1 PUSH1 0x20 DUP4 ADD SWAP1 DUP1 CALLDATASIZE DUP4 CALLDATACOPY ADD SWAP1 POP POP SWAP1 POP DUP5 DUP2 PUSH1 0x0 DUP2 MLOAD DUP2 LT PUSH2 0xA34 JUMPI PUSH2 0xA34 PUSH2 0x12D7 JUMP JUMPDEST PUSH1 0x20 MUL PUSH1 0x20 ADD ADD SWAP1 PUSH1 0x1 PUSH1 0x1 PUSH1 0xA0 SHL SUB AND SWAP1 DUP2 PUSH1 0x1 PUSH1 0x1 PUSH1 0xA0 SHL SUB AND DUP2 MSTORE POP POP DUP4 DUP2 PUSH1 0x1 DUP2 MLOAD DUP2 LT PUSH2 0xA68 JUMPI PUSH2 0xA68 PUSH2 0x12D7 JUMP JUMPDEST PUSH1 0x1 PUSH1 0x1 PUSH1 0xA0 SHL SUB SWAP3 DUP4 AND PUSH1 0x20 SWAP2 DUP3 MUL SWAP3 SWAP1 SWAP3 ADD ADD MSTORE PUSH1 0x40 MLOAD PUSH4 0xD06CA61F PUSH1 0xE0 SHL DUP2 MSTORE PUSH32 0x0 SWAP1 SWAP2 AND SWAP1 PUSH4 0xD06CA61F SWAP1 PUSH2 0xAC6 SWAP1 DUP7 SWAP1 DUP6 SWAP1 PUSH1 0x4 ADD PUSH2 0x15A0 JUMP JUMPDEST PUSH1 0x0 PUSH1 0x40 MLOAD DUP1 DUP4 SUB DUP2 DUP7 GAS STATICCALL ISZERO DUP1 ISZERO PUSH2 0xAE3 JUMPI RETURNDATASIZE PUSH1 0x0 DUP1 RETURNDATACOPY RETURNDATASIZE PUSH1 0x0 REVERT JUMPDEST POP POP POP POP PUSH1 0x40 MLOAD RETURNDATASIZE PUSH1 0x0 DUP3 RETURNDATACOPY PUSH1 0x1F RETURNDATASIZE SWAP1 DUP2 ADD PUSH1 0x1F NOT AND DUP3 ADD PUSH1 0x40 MSTORE PUSH2 0xB0B SWAP2 SWAP1 DUP2 ADD SWAP1 PUSH2 0x15C1 JUMP JUMPDEST PUSH1 0x1 DUP2 MLOAD DUP2 LT PUSH2 0xB1D JUMPI PUSH2 0xB1D PUSH2 0x12D7 JUMP JUMPDEST PUSH1 0x20 MUL PUSH1 0x20 ADD ADD MLOAD SWAP2 POP POP SWAP4 SWAP3 POP POP POP JUMP JUMPDEST PUSH1 0x40 DUP1 MLOAD PUSH2 0x100 DUP2 ADD DUP3 MSTORE PUSH1 0x1 PUSH1 0x1 PUSH1 0xA0 SHL SUB DUP8 DUP2 AND DUP1 DUP4 MSTORE DUP8 DUP3 AND PUSH1 0x20 DUP5 ADD MSTORE PUSH3 0xFFFFFF DUP7 AND DUP4 DUP6 ADD MSTORE ADDRESS PUSH1 0x60 DUP5 ADD MSTORE PUSH1 0x80 DUP4 ADD DUP6 SWAP1 MSTORE PUSH1 0xA0 DUP4 ADD DUP8 SWAP1 MSTORE PUSH1 0x0 PUSH1 0xC0 DUP5 ADD DUP2 SWAP1 MSTORE PUSH1 0xE0 DUP5 ADD DUP2 SWAP1 MSTORE SWAP4 MLOAD PUSH4 0x95EA7B3 PUSH1 0xE0 SHL DUP2 MSTORE PUSH32 0x0 SWAP1 SWAP3 AND PUSH1 0x4 DUP4 ADD MSTORE PUSH1 0x24 DUP3 ADD DUP8 SWAP1 MSTORE SWAP1 PUSH4 0x95EA7B3 SWAP1 PUSH1 0x44 ADD PUSH1 0x20 PUSH1 0x40 MLOAD DUP1 DUP4 SUB DUP2 PUSH1 0x0 DUP8 GAS CALL ISZERO DUP1 ISZERO PUSH2 0xBE3 JUMPI RETURNDATASIZE PUSH1 0x0 DUP1 RETURNDATACOPY RETURNDATASIZE PUSH1 0x0 REVERT JUMPDEST POP POP POP POP PUSH1 0x40 MLOAD RETURNDATASIZE PUSH1 0x1F NOT PUSH1 0x1F DUP3 ADD AND DUP3 ADD DUP1 PUSH1 0x40 MSTORE POP DUP2 ADD SWAP1 PUSH2 0xC07 SWAP2 SWAP1 PUSH2 0x146E JUMP JUMPDEST POP PUSH1 0x40 DUP1 MLOAD PUSH4 0x414BF389 PUSH1 0xE0 SHL DUP2 MSTORE DUP3 MLOAD PUSH1 0x1 PUSH1 0x1 PUSH1 0xA0 SHL SUB SWAP1 DUP2 AND PUSH1 0x4 DUP4 ADD MSTORE PUSH1 0x20 DUP5 ADD MLOAD DUP2 AND PUSH1 0x24 DUP4 ADD MSTORE SWAP2 DUP4 ADD MLOAD PUSH3 0xFFFFFF AND PUSH1 0x44 DUP3 ADD MSTORE PUSH1 0x60 DUP4 ADD MLOAD DUP3 AND PUSH1 0x64 DUP3 ADD MSTORE PUSH1 0x80 DUP4 ADD MLOAD PUSH1 0x84 DUP3 ADD MSTORE PUSH1 0xA0 DUP4 ADD MLOAD PUSH1 0xA4 DUP3 ADD MSTORE PUSH1 0xC0 DUP4 ADD MLOAD PUSH1 0xC4 DUP3 ADD MSTORE PUSH1 0xE0 DUP4 ADD MLOAD DUP3 AND PUSH1 0xE4 DUP3 ADD MSTORE PUSH32 0x0 SWAP1 SWAP2 AND SWAP1 PUSH4 0x414BF389 SWAP1 PUSH2 0x104 ADD PUSH1 0x20 PUSH1 0x40 MLOAD DUP1 DUP4 SUB DUP2 PUSH1 0x0 DUP8 GAS CALL ISZERO DUP1 ISZERO PUSH2 0xCC6 JUMPI RETURNDATASIZE PUSH1 0x0 DUP1 RETURNDATACOPY RETURNDATASIZE PUSH1 0x0 REVERT JUMPDEST POP POP POP POP PUSH1 0x40 MLOAD RETURNDATASIZE PUSH1 0x1F NOT PUSH1 0x1F DUP3 ADD AND DUP3 ADD DUP1 PUSH1 0x40 MSTORE POP DUP2 ADD SWAP1 PUSH2 0xCEA SWAP2 SWAP1 PUSH2 0x1455 JUMP JUMPDEST SWAP8 SWAP7 POP POP POP POP POP POP POP JUMP JUMPDEST PUSH1 0x40 DUP1 MLOAD PUSH1 0x2 DUP1 DUP3 MSTORE PUSH1 0x60 DUP3 ADD DUP4 MSTORE PUSH1 0x0 SWAP3 DUP4 SWAP3 SWAP2 SWAP1 PUSH1 0x20 DUP4 ADD SWAP1 DUP1 CALLDATASIZE DUP4 CALLDATACOPY ADD SWAP1 POP POP SWAP1 POP DUP6 DUP2 PUSH1 0x0 DUP2 MLOAD DUP2 LT PUSH2 0xD2E JUMPI PUSH2 0xD2E PUSH2 0x12D7 JUMP JUMPDEST PUSH1 0x20 MUL PUSH1 0x20 ADD ADD SWAP1 PUSH1 0x1 PUSH1 0x1 PUSH1 0xA0 SHL SUB AND SWAP1 DUP2 PUSH1 0x1 PUSH1 0x1 PUSH1 0xA0 SHL SUB AND DUP2 MSTORE POP POP DUP5 DUP2 PUSH1 0x1 DUP2 MLOAD DUP2 LT PUSH2 0xD62 JUMPI PUSH2 0xD62 PUSH2 0x12D7 JUMP JUMPDEST PUSH1 0x1 PUSH1 0x1 PUSH1 0xA0 SHL SUB SWAP3 DUP4 AND PUSH1 0x20 SWAP2 DUP3 MUL SWAP3 SWAP1 SWAP3 ADD ADD MSTORE PUSH1 0x40 MLOAD PUSH4 0x95EA7B3 PUSH1 0xE0 SHL DUP2 MSTORE PUSH32 0x0 DUP3 AND PUSH1 0x4 DUP3 ADD MSTORE PUSH1 0x24 DUP2 ADD DUP7 SWAP1 MSTORE SWAP1 DUP8 AND SWAP1 PUSH4 0x95EA7B3 SWAP1 PUSH1 0x44 ADD PUSH1 0x20 PUSH1 0x40 MLOAD DUP1 DUP4 SUB DUP2 PUSH1 0x0 DUP8 GAS CALL ISZERO DUP1 ISZERO PUSH2 0xDE0 JUMPI RETURNDATASIZE PUSH1 0x0 DUP1 RETURNDATACOPY RETURNDATASIZE PUSH1 0x0 REVERT JUMPDEST POP POP POP POP PUSH1 0x40 MLOAD RETURNDATASIZE PUSH1 0x1F NOT PUSH1 0x1F DUP3 ADD AND DUP3 ADD DUP1 PUSH1 0x40 MSTORE POP DUP2 ADD SWAP1 PUSH2 0xE04 SWAP2 SWAP1 PUSH2 0x146E JUMP JUMPDEST POP PUSH1 0x40 MLOAD PUSH4 0x38ED1739 PUSH1 0xE0 SHL DUP2 MSTORE PUSH1 0x0 SWAP1 PUSH1 0x1 PUSH1 0x1 PUSH1 0xA0 SHL SUB PUSH32 0x0 AND SWAP1 PUSH4 0x38ED1739 SWAP1 PUSH2 0xE5C SWAP1 DUP9 SWAP1 DUP6 SWAP1 DUP8 SWAP1 ADDRESS SWAP1 DUP12 SWAP1 PUSH1 0x4 ADD PUSH2 0x1647 JUMP JUMPDEST PUSH1 0x0 PUSH1 0x40 MLOAD DUP1 DUP4 SUB DUP2 PUSH1 0x0 DUP8 GAS CALL ISZERO DUP1 ISZERO PUSH2 0xE7B JUMPI RETURNDATASIZE PUSH1 0x0 DUP1 RETURNDATACOPY RETURNDATASIZE PUSH1 0x0 REVERT JUMPDEST POP POP POP POP PUSH1 0x40 MLOAD RETURNDATASIZE PUSH1 0x0 DUP3 RETURNDATACOPY PUSH1 0x1F RETURNDATASIZE SWAP1 DUP2 ADD PUSH1 0x1F NOT AND DUP3 ADD PUSH1 0x40 MSTORE PUSH2 0xEA3 SWAP2 SWAP1 DUP2 ADD SWAP1 PUSH2 0x15C1 JUMP JUMPDEST SWAP1 POP DUP1 PUSH1 0x1 DUP3 MLOAD PUSH2 0xEB4 SWAP2 SWAP1 PUSH2 0x1442 JUMP JUMPDEST DUP2 MLOAD DUP2 LT PUSH2 0xEC4 JUMPI PUSH2 0xEC4 PUSH2 0x12D7 JUMP JUMPDEST PUSH1 0x20 MUL PUSH1 0x20 ADD ADD MLOAD SWAP3 POP POP POP SWAP5 SWAP4 POP POP POP POP JUMP JUMPDEST PUSH1 0x60 PUSH1 0x0 DUP3 MLOAD PUSH8 0xFFFFFFFFFFFFFFFF DUP2 GT ISZERO PUSH2 0xEF6 JUMPI PUSH2 0xEF6 PUSH2 0x1086 JUMP JUMPDEST PUSH1 0x40 MLOAD SWAP1 DUP1 DUP3 MSTORE DUP1 PUSH1 0x20 MUL PUSH1 0x20 ADD DUP3 ADD PUSH1 0x40 MSTORE DUP1 ISZERO PUSH2 0xF1F JUMPI DUP2 PUSH1 0x20 ADD PUSH1 0x20 DUP3 MUL DUP1 CALLDATASIZE DUP4 CALLDATACOPY ADD SWAP1 POP JUMPDEST POP SWAP1 POP PUSH1 0x0 JUMPDEST DUP4 MLOAD DUP2 LT ISZERO PUSH2 0xF84 JUMPI DUP4 DUP2 DUP2 MLOAD DUP2 LT PUSH2 0xF40 JUMPI PUSH2 0xF40 PUSH2 0x12D7 JUMP JUMPDEST PUSH1 0x20 MUL PUSH1 0x20 ADD ADD MLOAD DUP3 DUP3 DUP2 MLOAD DUP2 LT PUSH2 0xF5A JUMPI PUSH2 0xF5A PUSH2 0x12D7 JUMP JUMPDEST PUSH1 0x1 PUSH1 0x1 PUSH1 0xA0 SHL SUB SWAP1 SWAP3 AND PUSH1 0x20 SWAP3 DUP4 MUL SWAP2 SWAP1 SWAP2 ADD SWAP1 SWAP2 ADD MSTORE DUP1 PUSH2 0xF7C DUP2 PUSH2 0x1518 JUMP JUMPDEST SWAP2 POP POP PUSH2 0xF25 JUMP JUMPDEST POP SWAP3 SWAP2 POP POP JUMP JUMPDEST PUSH1 0x1 PUSH1 0x1 PUSH1 0xA0 SHL SUB DUP2 AND DUP2 EQ PUSH2 0xFA0 JUMPI PUSH1 0x0 DUP1 REVERT JUMPDEST POP JUMP JUMPDEST PUSH3 0xFFFFFF DUP2 AND DUP2 EQ PUSH2 0xFA0 JUMPI PUSH1 0x0 DUP1 REVERT JUMPDEST PUSH1 0x0 DUP1 PUSH1 0x0 DUP1 PUSH1 0x0 PUSH1 0xA0 DUP7 DUP9 SUB SLT ISZERO PUSH2 0xFCC JUMPI PUSH1 0x0 DUP1 REVERT JUMPDEST DUP6 CALLDATALOAD PUSH2 0xFD7 DUP2 PUSH2 0xF8B JUMP JUMPDEST SWAP5 POP PUSH1 0x20 DUP7 ADD CALLDATALOAD PUSH2 0xFE7 DUP2 PUSH2 0xF8B JUMP JUMPDEST SWAP4 POP PUSH1 0x40 DUP7 ADD CALLDATALOAD SWAP3 POP PUSH1 0x60 DUP7 ADD CALLDATALOAD PUSH2 0xFFE DUP2 PUSH2 0xFA3 JUMP JUMPDEST SWAP5 SWAP8 SWAP4 SWAP7 POP SWAP2 SWAP5 PUSH1 0x80 ADD CALLDATALOAD SWAP3 SWAP2 POP POP JUMP JUMPDEST PUSH1 0x0 DUP1 PUSH1 0x0 DUP1 PUSH1 0x80 DUP6 DUP8 SUB SLT ISZERO PUSH2 0x1025 JUMPI PUSH1 0x0 DUP1 REVERT JUMPDEST DUP5 CALLDATALOAD PUSH2 0x1030 DUP2 PUSH2 0xF8B JUMP JUMPDEST SWAP4 POP PUSH1 0x20 DUP6 ADD CALLDATALOAD PUSH2 0x1040 DUP2 PUSH2 0xF8B JUMP JUMPDEST SWAP3 POP PUSH1 0x40 DUP6 ADD CALLDATALOAD SWAP2 POP PUSH1 0x60 DUP6 ADD CALLDATALOAD PUSH2 0x1057 DUP2 PUSH2 0xFA3 JUMP JUMPDEST SWAP4 SWAP7 SWAP3 SWAP6 POP SWAP1 SWAP4 POP POP JUMP JUMPDEST PUSH1 0x0 PUSH1 0x20 DUP3 DUP5 SUB SLT ISZERO PUSH2 0x1074 JUMPI PUSH1 0x0 DUP1 REVERT JUMPDEST DUP2 CALLDATALOAD PUSH2 0x107F DUP2 PUSH2 0xF8B JUMP JUMPDEST SWAP4 SWAP3 POP POP POP JUMP JUMPDEST PUSH4 0x4E487B71 PUSH1 0xE0 SHL PUSH1 0x0 MSTORE PUSH1 0x41 PUSH1 0x4 MSTORE PUSH1 0x24 PUSH1 0x0 REVERT JUMPDEST PUSH1 0x40 MLOAD PUSH1 0x1F DUP3 ADD PUSH1 0x1F NOT AND DUP2 ADD PUSH8 0xFFFFFFFFFFFFFFFF DUP2 GT DUP3 DUP3 LT OR ISZERO PUSH2 0x10C5 JUMPI PUSH2 0x10C5 PUSH2 0x1086 JUMP JUMPDEST PUSH1 0x40 MSTORE SWAP2 SWAP1 POP JUMP JUMPDEST PUSH1 0x0 PUSH8 0xFFFFFFFFFFFFFFFF DUP3 GT ISZERO PUSH2 0x10E7 JUMPI PUSH2 0x10E7 PUSH2 0x1086 JUMP JUMPDEST POP PUSH1 0x5 SHL PUSH1 0x20 ADD SWAP1 JUMP JUMPDEST PUSH1 0x0 DUP3 PUSH1 0x1F DUP4 ADD SLT PUSH2 0x1102 JUMPI PUSH1 0x0 DUP1 REVERT JUMPDEST DUP2 CALLDATALOAD PUSH1 0x20 PUSH2 0x1117 PUSH2 0x1112 DUP4 PUSH2 0x10CD JUMP JUMPDEST PUSH2 0x109C JUMP JUMPDEST DUP3 DUP2 MSTORE PUSH1 0x5 SWAP3 SWAP1 SWAP3 SHL DUP5 ADD DUP2 ADD SWAP2 DUP2 DUP2 ADD SWAP1 DUP7 DUP5 GT ISZERO PUSH2 0x1136 JUMPI PUSH1 0x0 DUP1 REVERT JUMPDEST DUP3 DUP7 ADD JUMPDEST DUP5 DUP2 LT ISZERO PUSH2 0x1151 JUMPI DUP1 CALLDATALOAD DUP4 MSTORE SWAP2 DUP4 ADD SWAP2 DUP4 ADD PUSH2 0x113A JUMP JUMPDEST POP SWAP7 SWAP6 POP POP POP POP POP POP JUMP JUMPDEST PUSH1 0x0 DUP3 PUSH1 0x1F DUP4 ADD SLT PUSH2 0x116D JUMPI PUSH1 0x0 DUP1 REVERT JUMPDEST DUP2 CALLDATALOAD PUSH8 0xFFFFFFFFFFFFFFFF DUP2 GT ISZERO PUSH2 0x1187 JUMPI PUSH2 0x1187 PUSH2 0x1086 JUMP JUMPDEST PUSH2 0x119A PUSH1 0x1F DUP3 ADD PUSH1 0x1F NOT AND PUSH1 0x20 ADD PUSH2 0x109C JUMP JUMPDEST DUP2 DUP2 MSTORE DUP5 PUSH1 0x20 DUP4 DUP7 ADD ADD GT ISZERO PUSH2 0x11AF JUMPI PUSH1 0x0 DUP1 REVERT JUMPDEST DUP2 PUSH1 0x20 DUP6 ADD PUSH1 0x20 DUP4 ADD CALLDATACOPY PUSH1 0x0 SWAP2 DUP2 ADD PUSH1 0x20 ADD SWAP2 SWAP1 SWAP2 MSTORE SWAP4 SWAP3 POP POP POP JUMP JUMPDEST PUSH1 0x0 DUP1 PUSH1 0x0 DUP1 PUSH1 0x80 DUP6 DUP8 SUB SLT ISZERO PUSH2 0x11E2 JUMPI PUSH1 0x0 DUP1 REVERT JUMPDEST DUP5 CALLDATALOAD PUSH8 0xFFFFFFFFFFFFFFFF DUP1 DUP3 GT ISZERO PUSH2 0x11FA JUMPI PUSH1 0x0 DUP1 REVERT JUMPDEST DUP2 DUP8 ADD SWAP2 POP DUP8 PUSH1 0x1F DUP4 ADD SLT PUSH2 0x120E JUMPI PUSH1 0x0 DUP1 REVERT JUMPDEST DUP2 CALLDATALOAD PUSH1 0x20 PUSH2 0x121E PUSH2 0x1112 DUP4 PUSH2 0x10CD JUMP JUMPDEST DUP3 DUP2 MSTORE PUSH1 0x5 SWAP3 SWAP1 SWAP3 SHL DUP5 ADD DUP2 ADD SWAP2 DUP2 DUP2 ADD SWAP1 DUP12 DUP5 GT ISZERO PUSH2 0x123D JUMPI PUSH1 0x0 DUP1 REVERT JUMPDEST SWAP5 DUP3 ADD SWAP5 JUMPDEST DUP4 DUP7 LT ISZERO PUSH2 0x1264 JUMPI DUP6 CALLDATALOAD PUSH2 0x1255 DUP2 PUSH2 0xF8B JUMP JUMPDEST DUP3 MSTORE SWAP5 DUP3 ADD SWAP5 SWAP1 DUP3 ADD SWAP1 PUSH2 0x1242 JUMP JUMPDEST SWAP9 POP POP DUP9 ADD CALLDATALOAD SWAP3 POP POP DUP1 DUP3 GT ISZERO PUSH2 0x127A JUMPI PUSH1 0x0 DUP1 REVERT JUMPDEST PUSH2 0x1286 DUP9 DUP4 DUP10 ADD PUSH2 0x10F1 JUMP JUMPDEST SWAP5 POP PUSH1 0x40 DUP8 ADD CALLDATALOAD SWAP2 POP DUP1 DUP3 GT ISZERO PUSH2 0x129C JUMPI PUSH1 0x0 DUP1 REVERT JUMPDEST PUSH2 0x12A8 DUP9 DUP4 DUP10 ADD PUSH2 0x10F1 JUMP JUMPDEST SWAP4 POP PUSH1 0x60 DUP8 ADD CALLDATALOAD SWAP2 POP DUP1 DUP3 GT ISZERO PUSH2 0x12BE JUMPI PUSH1 0x0 DUP1 REVERT JUMPDEST POP PUSH2 0x12CB DUP8 DUP3 DUP9 ADD PUSH2 0x115C JUMP JUMPDEST SWAP2 POP POP SWAP3 SWAP6 SWAP2 SWAP5 POP SWAP3 POP JUMP JUMPDEST PUSH4 0x4E487B71 PUSH1 0xE0 SHL PUSH1 0x0 MSTORE PUSH1 0x32 PUSH1 0x4 MSTORE PUSH1 0x24 PUSH1 0x0 REVERT JUMPDEST PUSH1 0x0 DUP2 MLOAD DUP1 DUP5 MSTORE PUSH1 0x20 DUP1 DUP6 ADD SWAP5 POP DUP1 DUP5 ADD PUSH1 0x0 JUMPDEST DUP4 DUP2 LT ISZERO PUSH2 0x131D JUMPI DUP2 MLOAD DUP8 MSTORE SWAP6 DUP3 ADD SWAP6 SWAP1 DUP3 ADD SWAP1 PUSH1 0x1 ADD PUSH2 0x1301 JUMP JUMPDEST POP SWAP5 SWAP6 SWAP5 POP POP POP POP POP JUMP JUMPDEST PUSH1 0x1 PUSH1 0x1 PUSH1 0xA0 SHL SUB DUP6 DUP2 AND DUP3 MSTORE PUSH1 0x80 PUSH1 0x20 DUP1 DUP5 ADD DUP3 SWAP1 MSTORE DUP7 MLOAD SWAP2 DUP5 ADD DUP3 SWAP1 MSTORE PUSH1 0x0 SWAP3 DUP8 DUP3 ADD SWAP3 SWAP1 SWAP2 SWAP1 PUSH1 0xA0 DUP7 ADD SWAP1 DUP6 JUMPDEST DUP2 DUP2 LT ISZERO PUSH2 0x1376 JUMPI DUP6 MLOAD DUP6 AND DUP4 MSTORE SWAP5 DUP4 ADD SWAP5 SWAP2 DUP4 ADD SWAP2 PUSH1 0x1 ADD PUSH2 0x1358 JUMP JUMPDEST POP POP DUP6 DUP2 SUB PUSH1 0x40 DUP8 ADD MSTORE PUSH2 0x138A DUP2 DUP10 PUSH2 0x12ED JUMP JUMPDEST SWAP4 POP POP DUP5 DUP4 SUB PUSH1 0x60 DUP7 ADD MSTORE DUP6 MLOAD SWAP2 POP DUP2 DUP4 MSTORE PUSH1 0x0 JUMPDEST DUP3 DUP2 LT ISZERO PUSH2 0x13BA JUMPI DUP7 DUP2 ADD DUP3 ADD MLOAD DUP5 DUP3 ADD DUP4 ADD MSTORE DUP2 ADD PUSH2 0x139F JUMP JUMPDEST POP PUSH1 0x0 DUP4 DUP4 ADD DUP3 ADD MSTORE PUSH1 0x1F SWAP1 SWAP2 ADD PUSH1 0x1F NOT AND SWAP1 SWAP2 ADD ADD SWAP7 SWAP6 POP POP POP POP POP POP JUMP JUMPDEST PUSH4 0x4E487B71 PUSH1 0xE0 SHL PUSH1 0x0 MSTORE PUSH1 0x11 PUSH1 0x4 MSTORE PUSH1 0x24 PUSH1 0x0 REVERT JUMPDEST DUP1 DUP3 MUL DUP2 ISZERO DUP3 DUP3 DIV DUP5 EQ OR PUSH2 0x1407 JUMPI PUSH2 0x1407 PUSH2 0x13DA JUMP JUMPDEST SWAP3 SWAP2 POP POP JUMP JUMPDEST PUSH1 0x0 DUP3 PUSH2 0x142A JUMPI PUSH4 0x4E487B71 PUSH1 0xE0 SHL PUSH1 0x0 MSTORE PUSH1 0x12 PUSH1 0x4 MSTORE PUSH1 0x24 PUSH1 0x0 REVERT JUMPDEST POP DIV SWAP1 JUMP JUMPDEST DUP1 DUP3 ADD DUP1 DUP3 GT ISZERO PUSH2 0x1407 JUMPI PUSH2 0x1407 PUSH2 0x13DA JUMP JUMPDEST DUP2 DUP2 SUB DUP2 DUP2 GT ISZERO PUSH2 0x1407 JUMPI PUSH2 0x1407 PUSH2 0x13DA JUMP JUMPDEST PUSH1 0x0 PUSH1 0x20 DUP3 DUP5 SUB SLT ISZERO PUSH2 0x1467 JUMPI PUSH1 0x0 DUP1 REVERT JUMPDEST POP MLOAD SWAP2 SWAP1 POP JUMP JUMPDEST PUSH1 0x0 PUSH1 0x20 DUP3 DUP5 SUB SLT ISZERO PUSH2 0x1480 JUMPI PUSH1 0x0 DUP1 REVERT JUMPDEST DUP2 MLOAD DUP1 ISZERO ISZERO DUP2 EQ PUSH2 0x107F JUMPI PUSH1 0x0 DUP1 REVERT JUMPDEST PUSH1 0x0 PUSH1 0xA0 DUP3 DUP5 SUB SLT ISZERO PUSH2 0x14A2 JUMPI PUSH1 0x0 DUP1 REVERT JUMPDEST PUSH1 0x40 MLOAD PUSH1 0xA0 DUP2 ADD DUP2 DUP2 LT PUSH8 0xFFFFFFFFFFFFFFFF DUP3 GT OR ISZERO PUSH2 0x14C5 JUMPI PUSH2 0x14C5 PUSH2 0x1086 JUMP JUMPDEST PUSH1 0x40 MSTORE DUP3 MLOAD PUSH2 0x14D3 DUP2 PUSH2 0xF8B JUMP JUMPDEST DUP2 MSTORE PUSH1 0x20 DUP4 ADD MLOAD PUSH2 0x14E3 DUP2 PUSH2 0xF8B JUMP JUMPDEST PUSH1 0x20 DUP3 ADD MSTORE PUSH1 0x40 DUP4 DUP2 ADD MLOAD SWAP1 DUP3 ADD MSTORE PUSH1 0x60 DUP4 ADD MLOAD PUSH2 0x1500 DUP2 PUSH2 0xFA3 JUMP JUMPDEST PUSH1 0x60 DUP3 ADD MSTORE PUSH1 0x80 SWAP3 DUP4 ADD MLOAD SWAP3 DUP2 ADD SWAP3 SWAP1 SWAP3 MSTORE POP SWAP2 SWAP1 POP JUMP JUMPDEST PUSH1 0x0 PUSH1 0x1 DUP3 ADD PUSH2 0x152A JUMPI PUSH2 0x152A PUSH2 0x13DA JUMP JUMPDEST POP PUSH1 0x1 ADD SWAP1 JUMP JUMPDEST PUSH1 0x0 DUP2 MLOAD DUP1 DUP5 MSTORE PUSH1 0x20 DUP1 DUP6 ADD SWAP5 POP DUP1 DUP5 ADD PUSH1 0x0 JUMPDEST DUP4 DUP2 LT ISZERO PUSH2 0x131D JUMPI DUP2 MLOAD PUSH1 0x1 PUSH1 0x1 PUSH1 0xA0 SHL SUB AND DUP8 MSTORE SWAP6 DUP3 ADD SWAP6 SWAP1 DUP3 ADD SWAP1 PUSH1 0x1 ADD PUSH2 0x1545 JUMP JUMPDEST PUSH1 0x60 DUP2 MSTORE PUSH1 0x0 PUSH2 0x157D PUSH1 0x60 DUP4 ADD DUP7 PUSH2 0x1531 JUMP JUMPDEST DUP3 DUP2 SUB PUSH1 0x20 DUP5 ADD MSTORE PUSH2 0x158F DUP2 DUP7 PUSH2 0x12ED JUMP JUMPDEST SWAP2 POP POP DUP3 PUSH1 0x40 DUP4 ADD MSTORE SWAP5 SWAP4 POP POP POP POP JUMP JUMPDEST DUP3 DUP2 MSTORE PUSH1 0x40 PUSH1 0x20 DUP3 ADD MSTORE PUSH1 0x0 PUSH2 0x15B9 PUSH1 0x40 DUP4 ADD DUP5 PUSH2 0x1531 JUMP JUMPDEST SWAP5 SWAP4 POP POP POP POP JUMP JUMPDEST PUSH1 0x0 PUSH1 0x20 DUP1 DUP4 DUP6 SUB SLT ISZERO PUSH2 0x15D4 JUMPI PUSH1 0x0 DUP1 REVERT JUMPDEST DUP3 MLOAD PUSH8 0xFFFFFFFFFFFFFFFF DUP2 GT ISZERO PUSH2 0x15EB JUMPI PUSH1 0x0 DUP1 REVERT JUMPDEST DUP4 ADD PUSH1 0x1F DUP2 ADD DUP6 SGT PUSH2 0x15FC JUMPI PUSH1 0x0 DUP1 REVERT JUMPDEST DUP1 MLOAD PUSH2 0x160A PUSH2 0x1112 DUP3 PUSH2 0x10CD JUMP JUMPDEST DUP2 DUP2 MSTORE PUSH1 0x5 SWAP2 SWAP1 SWAP2 SHL DUP3 ADD DUP4 ADD SWAP1 DUP4 DUP2 ADD SWAP1 DUP8 DUP4 GT ISZERO PUSH2 0x1629 JUMPI PUSH1 0x0 DUP1 REVERT JUMPDEST SWAP3 DUP5 ADD SWAP3 JUMPDEST DUP3 DUP5 LT ISZERO PUSH2 0xCEA JUMPI DUP4 MLOAD DUP3 MSTORE SWAP3 DUP5 ADD SWAP3 SWAP1 DUP5 ADD SWAP1 PUSH2 0x162E JUMP JUMPDEST DUP6 DUP2 MSTORE DUP5 PUSH1 0x20 DUP3 ADD MSTORE PUSH1 0xA0 PUSH1 0x40 DUP3 ADD MSTORE PUSH1 0x0 PUSH2 0x1666 PUSH1 0xA0 DUP4 ADD DUP7 PUSH2 0x1531 JUMP JUMPDEST PUSH1 0x1 PUSH1 0x1 PUSH1 0xA0 SHL SUB SWAP5 SWAP1 SWAP5 AND PUSH1 0x60 DUP4 ADD MSTORE POP PUSH1 0x80 ADD MSTORE SWAP4 SWAP3 POP POP POP JUMP INVALID LOG2 PUSH5 0x6970667358 0x22 SLT KECCAK256 MOD CHAINID 0xAA 0x49 0x49 0xEA 0x4D 0x4B 0xBC PUSH27 0x8CA21123A82224F4860EA3F1A9065207337A382CB1664736F6C63 NUMBER STOP ADDMOD EQ STOP CALLER "},"methodIdentifiers":{"BPS_DENOMINATOR()":"e1a45218","MIN_PROFIT_BPS()":"507a2291","checkProfitability(address,address,uint256,uint24)":"5abaaa74","emergencyWithdraw(address)":"6ff1c9bc","executeArbitrage(address,address,uint256,uint24,uint256)":"0f99d519","owner()":"8da5cb5b","receiveFlashLoan(address[],uint256[],uint256[],bytes)":"f04f2707"}}}}}